:100000000C9463000C948B000C948B000C948B006C
:100010000C948B000C948B000C948B000C948B0034
:100020000C948B000C948B000C948B000C948B0024
:100030000C948B000C948B000C948B000C948B0014
:100040000C94CD020C948B000C943D030C9417037C
:100050000C948B000C948B000C948B000C948B00F4
:100060000C948B000C948B006364696E6F707375D5
:1000700078585B000000000800020100000304073C
:100080000000000000000000000000002500280023
:100090002B0000000000240027002A0004040404B0
:1000A0000404040402020202020203030303030322
:1000B00001020408102040800102040810200102FF
:1000C00004081020D10411241FBECFEFD8E0DEBFFA
:1000D000CDBF11E0A0E0B1E0E2EAF0E102C005909E
:1000E0000D92A634B107D9F722E0A6E4B1E001C031
:1000F0001D92A031B207E1F710E0C3E6D0E004C0E2
:100100002197FE010E94FE04C236D107C9F70E9462
:100110006F030C944F080C94000090E0FC01E05534
:10012000FF4F249184569F4FFC018491882399F0BE
:1001300090E0880F991FFC01EE56FF4FA591B491F6
:10014000FC01E857FF4F859194918FB7F894EC919B
:10015000E22BEC938FBF089590E0FC01EC58FF4F29
:100160002491FC01E055FF4F3491FC01E456FF4F10
:10017000E491EE23C9F0222339F0233001F1A8F4F1
:10018000213019F1223029F1F0E0EE0FFF1FE8577E
:10019000FF4FA591B4918FB7F894EC91611126C0EF
:1001A00030953E233C938FBF08952730A9F0283027
:1001B000C9F0243049F7809180008F7D03C0809181
:1001C00080008F7780938000DFCF84B58F7784BDE8
:1001D000DBCF84B58F7DFBCF8091B0008F7780938C
:1001E000B000D2CF8091B0008F7DF9CF3E2BDACF17
:1001F0001F93CF93DF93182FEB010E948D00209760
:1002000039F460E0812FDF91CF911F910C94AC0005
:10021000CF3FD10511F461E0F5CFE12FF0E0EC58CC
:10022000FF4FE491E33031F140F4E130B1F0E230DE
:10023000E1F0C038D1057CF7E4CFE73029F1E830B0
:1002400059F1E430B1F780918000806280938000A2
:10025000D0938B00C0938A0004C084B5806884BDAD
:10026000C7BDDF91CF911F91089584B5806284BD91
:10027000C8BDF7CF80918000806880938000D093C4
:100280008900C0938800EDCF8091B0008068809392
:10029000B000C093B300E5CF8091B000806280933E
:1002A000B000C093B400DDCFAF92BF92CF92DF9287
:1002B000EF92FF920F931F93CF93DF936C017B011B
:1002C0008B01040F151FEB015E01AE18BF08C017AC
:1002D000D10759F06991D601ED91FC910190F0811F
:1002E000E02DC6010995892B79F7C501DF91CF91E2
:1002F0001F910F91FF90EF90DF90CF90BF90AF9044
:100300000895FC01538D448D252F30E0842F90E01B
:10031000821B930B541710F0CF9608950197089500
:10032000FC01918D828D981761F0A28DAE0FBF2FC9
:10033000B11D5D968C91928D9F5F9F73928F90E01F
:1003400008958FEF9FEF0895FC01918D828D98178E
:1003500031F0828DE80FF11D858D90E008958FEFCB
:100360009FEF0895FC01918D228D892F90E0805C94
:100370009F4F821B91098F73992708958AE691E018
:100380000E94B20121E0892B09F420E0822F089518
:1003900080E090E0892B29F00E94BE0181110C942D
:1003A00000000895FC01A48DA80FB92FB11DA35A18
:1003B000BF4F2C91848D90E001968F739927848F85
:1003C000A689B7892C93A089B1898C9183708064A8
:1003D0008C93938D848D981306C00288F389E02D49
:1003E00080818F7D80830895EF92FF920F931F93FA
:1003F000CF93DF93EC0181E0888F9B8D8C8D9813D8
:100400001AC0E889F989808185FF15C09FB7F894E3
:10041000EE89FF896083E889F9898081837080642F
:1004200080839FBF81E090E0DF91CF911F910F917A
:10043000FF90EF900895F62E0B8D10E00F5F1F4F89
:100440000F731127E02E8C8D8E110CC00FB607FC98
:10045000FACFE889F989808185FFF5CFCE010E9426
:10046000D201F1CFEB8DEC0FFD2FF11DE35AFF4FC1
:10047000F0829FB7F8940B8FEA89FB8980818062B4
:10048000CFCFCF93DF93EC01888D8823B9F0AA8971
:10049000BB89E889F9898C9185FD03C0808186FD3F
:1004A0000DC00FB607FCF7CF8C9185FFF2CF80818E
:1004B00085FFEDCFCE010E94D201E9CFDF91CF9130
:1004C00008950F931F93CF93DF938C01EB011816C0
:1004D00019060CF051C061E087E00E94AC0060E0BA
:1004E00088E00E94AC00C80182509F4F6FEF70E01F
:1004F0008D3F914040F4C80117FF04C08827992719
:10050000801B910BBC0185E00E94F800012B41F497
:1005100060E087E00E94AC0060E088E00E94AC00F0
:100520001C161D067CF561E089E00E94AC0060E0CD
:100530008AE00E94AC00CE0182509F4F6FEF70E0C6
:100540008D3F914040F4CE01D7FF04C08827992702
:100550008C1B9D0BBC0186E00E94F800CD2BC1F4E2
:1005600060E089E00E94AC0060E08AE0DF91CF911A
:100570001F910F910C94AC0060E087E00E94AC00EA
:1005800061E0AECF60E089E00E94AC0061E0D0CFD6
:10059000DF91CF911F910F9108951F920F920FB687
:1005A0000F9211242F933F938F939F93AF93BF93F9
:1005B00080910C0290910D02A0910E02B0910F0259
:1005C00030910B0223E0230F2D3758F50196A11D22
:1005D000B11D20930B0280930C0290930D02A09307
:1005E0000E02B0930F028091070290910802A09131
:1005F0000902B0910A020196A11DB11D8093070264
:1006000090930802A0930902B0930A02BF91AF91A0
:100610009F918F913F912F910F900FBE0F901F9040
:10062000189526E8230F0296A11DB11DD2CF1F9267
:100630000F920FB60F9211242F933F934F935F9316
:100640006F937F938F939F93AF93BF93EF93FF939A
:100650008AE691E00E94D201FF91EF91BF91AF91A4
:100660009F918F917F916F915F914F913F912F91CA
:100670000F900FBE0F901F9018951F920F920FB6FC
:100680000F9211242F938F939F93EF93FF93E091F9
:100690007A01F0917B018081E0918001F0918101EC
:1006A00082FD1BC09081809183018F5F8F732091A9
:1006B0008401821741F0E0918301F0E0E659FE4F9A
:1006C000958F80938301FF91EF919F918F912F914F
:1006D0000F900FBE0F901F9018958081F4CFCF938D
:1006E000DF9300D000D01F92CDB7DEB7789484B5E9
:1006F000826084BD84B5816084BD85B5826085BD1E
:1007000085B5816085BD80916E00816080936E00AB
:10071000109281008091810082608093810080919D
:10072000810081608093810080918000816080934E
:1007300080008091B10084608093B1008091B0000E
:1007400081608093B00080917A00846080937A0009
:1007500080917A00826080937A0080917A00816033
:1007600080937A0080917A00806880937A0010925A
:10077000C1008DE00E948D0087E00E948D0088E01E
:100780000E948D0085E00E948D0086E00E948D0011
:1007900089E00E948D008AE00E948D00E0917A013C
:1007A000F0917B0182E08083E0917601F091770106
:1007B0001082E0917801F091790180E180831092BC
:1007C0008201E0917E01F0917F0186E08083E091DB
:1007D0007C01F0917D01808180618083E0917C01CA
:1007E000F0917D01808188608083E0917C01F091AF
:1007F0007D01808180688083E0917C01F0917D01A2
:1008000080818F7D808343E250E066E171E08AE67B
:1008100091E00E94540142E050E06AE371E08AE610
:1008200091E00E94540161E08DE00E94AC008E01D5
:100830000B5F1F4F9E012F5F3F4F49017E0133E049
:10084000E30EF11C8DE3C82E81E0D82E98E4A92E8A
:1008500091E0B92E20E0622E20E0722E55245394B0
:100860008AE691E00E94B2011816190614F58AE68C
:1008700091E00E94900140916801509169019A01B4
:100880002F5F3F4F3093690120936801485B5E4FB3
:10089000FA0180838A3019F02F31310551F4285B39
:1008A0003E4FF90110821092690110926801509236
:1008B000470180914701882399F11F930F939F92DD
:1008C0008F92FF92EF92DF92CF92BF92AF920E94EF
:1008D00004050FB6F894DEBF0FBECDBF039709F035
:1008E0005DC08D81833709F059C069817A818B8120
:1008F0009C810E9461022FB7F89480910C02909124
:100900000D02A0910E02B0910F022FBF8093000143
:1009100090930101A0930201B0930301109247014B
:1009200080914601882361F070E060E090E080E013
:100930000E9461021092460160E08DE00E94AC00CE
:100940002FB7F89480910C0290910D02A0910E02A5
:10095000B0910F022FBF40910001509101016091B1
:10096000020170910301841B950BA60BB70B813D0F
:100970009740A105B10530F070E060E090E080E0C4
:100980000E9461026114710409F46ACF0E94BE01E1
:10099000882309F465CF0E94000062CF509246017F
:1009A000BDCFEAE6F1E01382128288EE93E0A0E088
:1009B000B0E084839583A683B78388E091E0918338
:1009C000808385EC90E09587848784EC90E097871E
:1009D000868780EC90E0918B808B81EC90E0938B0C
:1009E000828B82EC90E0958B848B86EC90E0978BE9
:1009F000868B118E128E138E148E0895EE0FFF1FAC
:100A00000590F491E02D0994AEE0B0E0EAE0F5E065
:100A10000C94280885E08C838B899C899A83898330
:100A2000AE01495E5F4F6D897E89CE0101960E94BD
:100A3000A8062E96E2E00C94440820FD09C0FC01B3
:100A400023FD05C022FF02C073836283518340836C
:100A5000089544FD17C046FD1DC0DB01FC01AA0F2F
:100A6000BB1FEE1FFF1F1094D1F76A0F7B1F8E1F55
:100A70009F1F660F771F881F991F620F711D811DB1
:100A8000911D089533E0660F771F881F991F31501D
:100A9000D1F7F3CF34E0F7CF0F931F93CF93DF93CA
:100AA0008C01C8010E94C107EC0197FD08C00E949B
:100AB000AD07892BB1F7B801CE010E94FD07CE0129
:100AC000DF91CF911F910F9108958F929F92AF92D6
:100AD000BF92EF92FF920F931F93CF93DF938C01FE
:100AE000D62F7A01B22E0E94C1079C0133272B32E8
:100AF000310529F02D323105A9F46894B7F8D150A9
:100B000061F480E0DF91CF911F910F91FF90EF9002
:100B1000BF90AF909F908F900895C8010E94C10729
:100B200097FDEFCFCB2DCD7F2B2D2073F9F48033A4
:100B3000E9F4AA24AA94AD0E89F0C8010E94C10765
:100B400097FD0CC0282F2F7D283561F4C264D25048
:100B500029F0C8010E94C10797FF08C0812C912C81
:100B600054011BC0B6FE2BC0C260DA2D812C912C23
:100B7000540120ED280F283028F1C4FD09C02A3087
:100B800008F1C6FF05C02F7D3FEE320F3630C8F0AA
:100B9000B8010E94FD07C1FFB4CFC7FF08C0B094E1
:100BA000A09490948094811C911CA11CB11C2C2FAA
:100BB000B501A401C7010E941D0581E0A3CFC26158
:100BC000D4CF27504C2FC501B4010E9429054B01F9
:100BD0005C01C260D15009F3C8010E94C10797FFB0
:100BE000C8CFD9CFA0E2B0E0E8EFF5E00C941D0843
:100BF0005C01962E7A01CE0101966C0180E2F6012D
:100C000011928A95E9F7F501B381890130E020E07E
:100C1000712C812CA0E041E050E0F801B3FD8591FA
:100C2000B3FF8191982F8F01811107C010E000E080
:100C3000C801A096EDE00C9439088E3519F4211501
:100C4000310541F1A21713064CF48D3549F18D326F
:100C500029F4811006C0882483941DC0882009F4DB
:100C600064C0E92FE695E695E695EC0DFD2DF11DA6
:100C7000892F8770BA0101C0660F8A95EAF78081D3
:100C8000682B6083791651F0971510F49F5FE9CFB8
:100C90009150E7CFA1E02F5F3F4FBFCF812CFBCF1B
:100CA000882019F08E8180628E83AA2359F0F60184
:100CB0009E012F5D3F4F8081809580833196E217A2
:100CC000F307C9F788248394C5010E94C10797FDE3
:100CD00016C0E82FE695E695E695EC0DFD2DF11D85
:100CE000208130E0AC014770552702C0359527952B
:100CF0004A95E2F720FD06C0B5010E94FD07882055
:100D000069F094CFE114F10429F0F7018083C70161
:100D100001967C019A94812C9110D6CFE114F104B4
:100D200009F486CFF701108283CFE82FE695E69588
:100D3000E695EC0DFD2DF11D982F9770BA0101C0BD
:100D4000660F9A95EAF79081692B6083782EA3CF7E
:100D5000B0E0A0E0EEEAF6E00C941B086C01EB01B9
:100D60005A01FC0117821682512CF601E380FE0124
:100D7000E3FC8591E3FE8191182FEF018823E9F0D0
:100D800090E00E94AD07892B21F0C6010E944C051E
:100D9000ECCF153241F4FE01E3FC1591E3FE119115
:100DA000EF01153269F4C6010E94C10797FD8EC09C
:100DB0001817D9F2B6010E94FD07852D90E08AC070
:100DC00000E01A3231F4E3FC1591E3FE1191EF01DA
:100DD00001E0F12C20ED210F2A3048F101FF37C04E
:100DE000FF2059F31836B1F11C3609F43DC0112328
:100DF00021F3612F70E088E690E00E94B607892B0E
:100E0000E1F2912C812C00FD06C0F50180809180DB
:100E1000C50102965C011E3679F5F60146815781BF
:100E200070E060E0202FC4010E941D059ECF02608B
:100E30006F2D70E090E080E040E20E942905F62EE0
:100E4000FE01E3FC1591E3FE1191EF01C3CFFF24F6
:100E5000FA94C8CFFE01E3FC1591E3FE1191EF0176
:100E6000183609F0C4CF08600460FE01E3FC159158
:100E7000E3FE1191EF01BBCF1336C1F401FD02C0B7
:100E8000FF24F394C6010E94C10797FD1FC081147F
:100E9000910429F0F4018083C40101964C01FA9475
:100EA000F110F0CF00FD61CF53945FCF1B35B9F443
:100EB0009E01A4016F2DC6010E94F205EC01892B51
:100EC00089F7F6018381807309F477CF8FEF9FEF65
:100ED000511073CFCDB7DEB7EFE00C943708C601E1
:100EE0000E944C0597FDF2CF1F36A9F130F414365D
:100EF00041F0193639F0006405C01337B9F01537E1
:100F0000D1F70062202FA4016F2DC6010E94650554
:100F10008111C8CFD6CF8114910429F0F4016082E9
:100F2000C40101964C01FA94FF2071F0C6010E94A1
:100F3000C1073C0197FD08C00E94AD07892B59F3FA
:100F4000B601C3010E94FD078114910409F4AACFE0
:100F5000F4011082A7CF0061D5CF91110C94150830
:100F6000803219F089508550C8F70895FC0105902A
:100F7000061621F00020D9F7C00108953197CF015E
:100F80000895CF93DF93EC012B8120FF1AC026FF39
:100F90000CC02F7B2B838E819F8101969F838E8334
:100FA0008A8190E0DF91CF91089522FF18C0E881F7
:100FB000F9818081082E000C990B009729F420629A
:100FC0002B838FEF9FEFEECF3196F983E8832E814D
:100FD0003F812F5F3F4F3F832E839927E3CFEA85E1
:100FE000FB85099597FFF3CF2B81019621F080E2D5
:100FF000822B8B83E6CF80E1FBCFFB01238120FF97
:1010000011C026FD0FC08F3F980771F082832F7D9E
:101010002064238326813781215031093783268339
:10102000992708958FEF9FEF0895992788270895AE
:101030002F923F924F925F926F927F928F929F92E8
:10104000AF92BF92CF92DF92EF92FF920F931F93D6
:10105000CF93DF93CDB7DEB7CA1BDB0B0FB6F89487
:10106000DEBF0FBECDBF09942A88398848885F84C7
:101070006E847D848C849B84AA84B984C884DF8038
:10108000EE80FD800C811B81AA81B981CE0FD11D1C
:101090000FB6F894DEBF0FBECDBFED010895F894F2
:0210A000FFCF80
:1010A200D007000000000000F40154018101410258
:1010B200B2019001A4014569645667732073657299
:1010C20069616C206D6F746F7220636F6E74726FE2
:1010D2006C6C65722076302E33000D0A0025642C6C
:0610E20025642C256300CB
:00000001FF
